:100000000C942A000C943E000C9450000C943C007C
:100010000C943C000C943C000C943C000C943C0070
:100020000C943C000C943C000C943C000C943C0060
:100030000C943C000C943C000C943C000C943C0050
:100040000C943C000C943C000C943C000C943C0040
:100050000C943C0011241FBECFE5D4E0DEBFCDBF21
:1000600020E0A0E6B0E001C01D92A036B207E1F7A3
:100070000E947D000C9487000C9400001F920F9248
:100080000FB60F9211248F939F939BB384E089271F
:100090008BBB9F918F910F900FBE0F901F90189563
:1000A0001F920F920FB60F9211248F938BB380582B
:1000B0008BBBDE988F910F900FBE0F901F901895FD
:1000C0008FB780688FBF8BB780648BBFDA9885B796
:1000D000836085BF8AB780648ABF08958FB78068C0
:1000E0008FBF8BB780688BBFDF98DE9885B78C6039
:1000F00085BF8AB780688ABF08950E946E000E94FB
:1001000060008A988B98D29AD79AD69AFFCFF894A3
:02011000FFCF1F
:00000001FF
